:020000040800F2
:10000000C004002045010008112E0008CB2600087E
:10001000C92D00086D0F0008D53800080000000049
:100020000000000000000000000000008D3100080A
:10003000B91E0008000000001D2F000893320008C0
:100040005F0100085F0100085F0100085F01000810
:100050005F0100085F010008F51E00085F0100084D
:10006000152000085F010008AD2000085F010008AE
:100070005F0100085F0100085F0100085F010008E0
:100080005F0100085F0100085F0100085F010008D0
:1000900081380008710F00085F0100084521000841
:1000A0005F0100085F0100085F0100085F010008B0
:1000B0005F0100085F0100085F0100085F010008A0
:1000C0005F0100085F0100085F0100085F01000890
:1000D0005F0100085F0100085F0100085F01000880
:1000E000111F00085F0100085F0100085F010008A0
:1000F0005F0100085F0100085F0100085F01000860
:100100005F0100085F0100085F0100085F0100084F
:100110005F0100085F0100085F0100085F0100083F
:100120005F0100085F0100085F0100085F0100082F
:10013000DFF80CD000F040FB00480047353B0008DA
:10014000C00400200648804706480047FEE7FEE757
:10015000FEE7FEE7FEE7FEE7FEE7FEE7FEE7FEE777
:10016000193300083101000830B480EA010202F0BE
:10017000004530F0004221F0004013D090B1C30D93
:10018000D40DC2F31601C0F31600E41A41F40001C5
:1001900040F400027D34914201D3641C00E0490028
:1001A000002C02DA30BC002070474FF4000000231E
:1001B000914201D3891A034340084FEA4101F7D124
:1001C00051B1914202D14FF0004105E002D24FF00F
:1001D000010101E06FF0010103EBC450284430BC81
:1001E00000F055BA2DE9FE4F804681EA0300C00FAA
:1001F0000C46009021F0004123F00045B8EB0200CE
:10020000A94105D24046214690461C460B4602466F
:1002100023F00040104347D0270DC7F30A00C3F373
:100220000A510290401A019040286BDAC3F3130080
:1002300040F4801B0098924620B10023D2EB030AC1
:1002400063EB0B0B01985946C0F14002504600F099
:10025000EDF906460D4650465946019A00F005FA5A
:1002600010EB08006141002487EA115284EAE77329
:100270001A4340D0009A62B3019A012A4FEA07520A
:1002800015DC001B61EB02014FF0004202EA07524D
:10029000CDE90042001C41F5801132462B4600F0AA
:1002A0003CFA03B0BDE8F08F40462146F9E7001B59
:1002B00061EB0201001C41F5801300185B4120181E
:1002C000A2F5001747EB030140EAD570B6196D415E
:1002D00011E06D084FEA360645EAC0754FEA07524D
:1002E000001B61EB0201001C41F5801149084FEA37
:1002F00030000019514132462B4603B0BDE8F04FA3
:1003000000F0FCB90098012240000023D0EB02026B
:1003100063EBE073009821464FEAE074B8EB00000D
:1003200061EB0401E9E783F000435BE781F0004102
:1003300058E72DE9FE4F81EA030404F0004421F060
:10034000004100944FF0000B23F0004350EA0104F9
:100350005ED052EA03045BD0C3F30A54C1F30A55DA
:100360002C44A4F2F3340194A0FB0254C1F3130112
:1003700041F48011C3F3130343F4801301FB0244DF
:1003800000FB034E840A970A44EA815447EA8357E4
:10039000A4FB076802958D0A05FB07854FEA932C9D
:1003A00004FB0C542705029D4FEA065847EA16370E
:1003B000B5EB08056EEB070C870E920E47EA811726
:1003C00042EA8312A7FB0201B6EB0B0164EB0004C7
:1003D0002B0D43EA0C335E1844EB1C50DA465146B1
:1003E000E7FB0201C5F313044FEA0B3343EA14534E
:1003F0004FEA0432019C43EA0603A4F10C04029480
:10040000009CCDE900B400F088F903B0BDE8F08F9E
:1004100000200146F9E72DE9F04D81EA030404F0DC
:10042000004B21F0004514464FF0000A23F0004134
:1004300050EA050220D054EA01021DD0C5F30A5744
:100440000246C5F31303C1F31300C1F30A5640F487
:10045000801543F48013A7EB0608101BD64608F25C
:10046000FD3873EB050002D308F1010801E0921892
:100470005B41B8F1000F03DA00200146BDE8F08DC2
:1004800000204FF48011064684460EE0171B73EBE4
:10049000050705D3121B63EB050306434CEA010C69
:1004A00049084FEA300092185B4150EA0107EDD14C
:1004B00052EA030012D082EA040083EA05010843ED
:1004C00005D0101BAB4106D20122002306E000221A
:1004D0004FF0004302E06FF0010253101AEB0600E8
:1004E0004CEB085110EB0A0041EB0B01BDE8F04D5D
:1004F00000F004B996230022114600F0D1B80EB5E1
:10050000C10F80EAE0700844CA07002140F233437B
:100510008DE80E000A460B4600F0FFF803B000BD60
:1005200020F00040C10DC0F3160040F400007F2908
:1005300001DA00207047962903DCC1F19601C8401A
:100540007047963988407047C1F30A5210B5C1F31D
:10055000130140F2FF3341F480119A4201DA002086
:1005600010BD40F233439A42A2F2334203DC5242BE
:1005700000F06BF810BD904010BD00F0004230F06C
:1005800000400AD0C10D01F56071C0F3160042EAC7
:100590000151C208400711437047002001467047CF
:1005A00001F0004330B421F0004150EA010206D0CE
:1005B0000A0DA2F56072C1F31301002A02DC30BCFF
:1005C00000207047440F44EAC104C100E01830BC69
:1005D00000EBC25000F05BB8002801DBC0F1004026
:1005E000002901DBC1F1004181427047002801DB95
:1005F000C0F10040002901DBC1F100418842704791
:1006000030B50B46014600202022012409E021FAE2
:1006100002F59D4205D303FA02F5491B04FA02F5DF
:100620002844151EA2F10102F1DC30BD202A04DBB2
:10063000203A00FA02F1002070479140C2F12003F5
:1006400020FA03F3194390407047202A04DB203A34
:1006500021FA02F00021704721FA02F3D040C2F1E2
:1006600020029140084319467047202A06DBCB1729
:10067000203A41FA02F043EAE07306E041FA02F35D
:10068000D040C2F12002914008431946704700292A
:10069000A8BF7047401C490008BF20F00100704708
:1006A00010B4B0FA80FC00FA0CF050EA010404BF68
:1006B00010BC704749B1CCF1200421FA04F411FABE
:1006C0000CF118BF012121430843A3EB0C01CB1D02
:1006D0004FEA00614FEA102042BF002010BC704773
:1006E00000EBC35010440029A4BF10BC7047401C4D
:1006F000490008BF20F0010010BC704710B5141E5F
:1007000073F1000408DA401C41F1000192185B41CA
:100710001A4301D120F0010010BD2DE9F04D9246A1
:100720009B4611B1B1FA81F202E0B0FA80F22032B8
:100730009046FFF77BFF04460F4640EA0A0041EA75
:100740000B0153465A46084313D0114653EA0100A1
:1007500019D0C8F140025046FFF777FF05460E4614
:10076000504659464246FFF761FF084305D0012035
:1007700004E020463946BDE8F08D0020054346EAF6
:10078000E0762C4337430A986305E40AA0EB08009F
:100790000022FD0A44EA47540A3002D500200146EF
:1007A000E9E7010510196941DDE9084500196941CA
:1007B000BDE8F04DA2E70000064C074D06E0E068FA
:1007C00040F0010394E8070098471034AC42F6D398
:1007D000FFF7B2FC704100089041000808B5012104
:1007E000084602F0A9FB01214FF4047002F0D4FB8B
:1007F0000420ADF8000000208DF80300694607488A
:1008000001F082FE0820ADF8000000208DF8030002
:100810006946024801F078FE08BD00000010014062
:1008200010B5FFF7DBFF00F001F810BD00B591B087
:10083000364801F095F83648069036480790002073
:1008400008900220099000200A9080200B90400020
:100850000C9080000D9020200E9000020F90002040
:10086000109006A9294801F021F90121274801F03B
:100870006BF80020019001208DF808008DF8090028
:100880004FF4602003900020049002208DF81400A3
:1008900001A91F484C3800F069F84FF4404002F0BD
:1008A0003FFB052301220C2119484C3800F086F843
:1008B000052302220D2116484C3800F07FF8012153
:1008C00013484C3800F033F8012111484C3800F03F
:1008D00023F80F484C3800F0CDF800BF0C484C38D6
:1008E00000F03AF80028F9D109484C3800F0D2F865
:1008F00000BF07484C3800F025F80028F9D1012145
:1009000003484C3800F0BBF811B000BD08000240AD
:100910004C2401402800002021B1826842F00102ED
:10092000826003E0826822F001028260704721B198
:10093000826842F48072826003E0826822F48072EE
:1009400082607047014600208A6802F004020AB102
:10095000012000E000207047014600208A6802F074
:1009600008020AB1012000E00020704730B50246BD
:100970000020002350680F4C20400D790C6844EA99
:1009800005242043506090680B4C2040D1E902546C
:100990002C434D7944EA450420439060D06A20F40A
:1009A00070000C7C641EE4B2234340EA0350D06222
:1009B00030BD0000FFFEF0FFFDF7F1FFF0B504468B
:1009C0000D4600200021092D11DDE068A5F10A0681
:1009D00006EB4607072606FA07F18843A5F10A0643
:1009E00006EB460603FA06F10843E0600CE02069D6
:1009F00005EB4507072606FA07F1884305EB450690
:100A000003FA06F108432061072A0FDA606B561ECD
:100A100006EB86071F2606FA07F18843561E06EBEB
:100A2000860605FA06F10843606322E00D2A0FDA14
:100A3000206BD61F06EB86071F2606FA07F18843B0
:100A4000D61F06EB860605FA06F10843206310E080
:100A5000E06AA2F10D0606EB86071F2606FA07F1EB
:100A60008843A2F10D0606EB860605FA06F1084357
:100A7000E062F0BD816841F008018160704721B1FA
:100A8000826842F4A002826003E0826822F4A0023D
:100A900082607047816841F0040181607047000006
:100AA00010B594480068002871D1934800781E283A
:100AB00009DA0121914801F006FE4FF48051904877
:100AC00001F001FE0CE08C480078282808DD0121A7
:100AD0008A4801F0F6FD4FF48051894801F0F1FD9C
:100AE00088480078B0F5C87F09DD2021864801F0EC
:100AF000EAFD4FF40061824801F0E5FD0DE0814818
:100B00000078B0F5967F08DA20217F4801F0D9FD02
:100B10004FF400617A4801F0D4FD7C497C480068BC
:100B2000FFF75AFD76D27B48006801280ED11021CC
:100B3000794801F0C8FD0821774801F0C4FD7748E5
:100B400001F0C4F91021744801F0BBFD4FF480514D
:100B5000734801F0B6FD73496D480068FFF73CFD2E
:100B600001D2012400E000246F4969480068FFF7C2
:100B70003DFD01D2012000E00020044044B11021DD
:100B8000614801F0A0FD64206849086081E0B0E0A0
:100B900065495F480068FFF71FFD01D2012400E0AE
:100BA000002463495A480068FFF720FD01D2012064
:100BB00000E00020044044B11021534801F083FDBF
:100BC00040F24D105949086063E0594950480068A7
:100BD000FFF702FD01D2012400E0002455494C48F2
:100BE0000068FFF703FD01D2012000E0002004406F
:100BF00044B11021444801F066FD40F29A204B496F
:100C0000086046E04B4942480068FFF7E5FC02D225
:100C1000012401E041E0002447493D480068FFF716
:100C2000E5FC01D2012000E00020044044B1102185
:100C3000354801F048FD40F2E7303C49086028E0C3
:100C40003D4933480068FFF7C7FC07D210212E4802
:100C500001F037FD0020354908601AE031492C4881
:100C60000068FFF7C3FC01D2012400E000242749FB
:100C700027480068FFF7B0FC01D2012000E0002007
:100C8000044034B11021204801F01BFD0020274909
:100C9000086000201F4908602BE01C491C480068C0
:100CA000FFF7A4FC25D20020204908601021164837
:100CB00001F007FD4FF48051194801F004FD15487B
:100CC000006870B91021144801F0FDFC0821124899
:100CD00001F0F7FC114801F0F9F810210E4801F07D
:100CE000F0FC4FF480510E4801F0EBFC0120094963
:100CF000086010BD6C00002056000020000C014070
:100D00000014014055000020001001400000FA438B
:100D1000580000205000002000200140404B4C00B3
:100D2000001C0140000048430000164380000020E2
:100D30000000C842000048420000204110B501F008
:100D4000ADFB012002F098FA10BD000008B50120AB
:100D5000ADF8000048208DF803006946014801F015
:100D6000D3FB08BD001C014008B50120ADF8000010
:100D700010208DF8030003208DF802006946024818
:100D800001F0C2FB08BD0000001C014010B5FFF7D8
:100D9000DDFF02210E4801F096FC052001F096F8D7
:100DA00001210B4801F084FC012802D10949088087
:100DB00002E00020074908800221054801F081FC7B
:100DC000052001F083F8FFF7CFFF0248008810BD2F
:100DD000001C01403600002070B50024FFF7B6FF6C
:100DE0000121134801F06FFC00251BE06006040E92
:100DF00002210F4801F067FC052001F067F801218E
:100E00000B4801F055FC012801D1012600E0002625
:100E100034430221064801F054FC052001F056F845
:100E2000681CC5B2082DE1DBFFF79EFF204670BDB0
:100E3000001C014010B50446FFF796FF012C04D1B9
:100E400001210D4801F03FFC06E024B901210A48C8
:100E500001F037FC00E010BD0221074801F033FC2F
:100E6000052001F033F80221034801F02AFC052097
:100E700001F02CF800BFEEE7001C014070B50446FD
:100E800000251DE004F0800020B101210F4801F091
:100E90001AFC03E001210D4801F013FC6006040E6A
:100EA00002210A4801F00FFC052001F00FF8022191
:100EB000064801F006FC052001F008F8681CC5B2E0
:100EC000082DDFDBFFF762FF70BD0000001C014052
:100ED00010B501210C4801F0F6FB02210A4801F08F
:100EE000F2FB052000F0F2FF0121074801F0E9FBC9
:100EF000052000F0EBFF0221034801F0E2FB052092
:100F000000F0E4FF10BD0000001C014010B50121FD
:100F1000084801F0D6FB0221064801F0D4FB052069
:100F200000F0D4FF0121034801F0CDFB052000F0C3
:100F3000CDFF10BD001C014008B50121402002F08A
:100F40002BF810208DF8030003208DF802002020DC
:100F5000ADF800006946044801F0D6FA20210248A5
:100F600001F0AFFB08BD00000018014000BFFEE724
:100F700010B52E4A01212E4800F062FA2B48406835
:100F800041F2100188420ED12848007A04280AD183
:100F90002648807A012806D12448C07A18B9002052
:100FA0002449087041E02148406841F2100188421C
:100FB0000ED11E48007A04280AD11C48807A0128E4
:100FC00006D11A48C07A012802D11A4908702CE0CB
:100FD0001648406841F2100188420ED11348007A49
:100FE00004280AD11148807A012806D10F48C07A16
:100FF000022802D10F49087017E00C48406841F2FE
:10100000100188420ED10948007A04280AD1074805
:10101000807A012806D10548C07A032802D1054903
:10102000087002E0FF200349087010BDA8000020EE
:10103000006400405400002010B500F0F1F800F00A
:10104000DDF900F0AFF900F0A1F810BD10B50446CD
:101050000B48844209D10121480601F08DFF00218F
:101060004FF0007001F088FF08E00121880601F0D0
:1010700083FF00214FF0806001F07EFF10BD000073
:101080000064004010B50021837A012202FA03F1C6
:101090003D4A126842F001023B4B1A603A4A1C3248
:1010A00012688A43384B1C331A60027BCAB9364A2D
:1010B0000C3212688A43344B0C331A604288C3885E
:1010C00042EA0343304A4032847A42F8343002889C
:1010D000838842EA03432C4A4032847A02EBC402FA
:1010E0005360027B012A19D1274A0C3212680A4345
:1010F000254B0C331A604288038842EA0343224A94
:101100004032847A42F83430C288838842EA03430A
:101110001D4A4032847A02EBC4025360C27A3AB963
:10112000194A121D12688A43174B1B1D1A6006E0EC
:10113000154A121D12680A43134B1B1D1A600289BF
:1011400032B9114A143212688A430F4B14331A60B1
:101150000289012A06D10C4A143212680A430A4B4A
:1011600014331A60427B012A06D1074A1C321268E6
:101170000A43054B1C331A60034A126822F001022D
:10118000014B1A6010BD0000006600401FB5002032
:101190008DF80A008DF80B0001208DF80C0000205E
:1011A000ADF800004CF20400ADF802004FF6FF70FD
:1011B000ADF80400ADF806000020ADF808000120ED
:1011C0008DF80D006846FFF75DFF012202211348EC
:1011D00000F054F801208DF80A0000208DF80B0073
:1011E00001208DF80C000020ADF8000048F28400CA
:1011F000ADF802004FF6FF70ADF80400ADF8060040
:101200000120ADF808008DF80D006846FFF73AFFA1
:1012100001221021014800F031F81FBD0064004098
:1012200008B50121092001F0B7FE0121480601F0AF
:1012300093FE01214FF4EA1001F0F2F94FF48070AF
:10124000ADF8000048208DF8030003208DF802005F
:101250006946094801F058F94FF40070ADF80000F4
:1012600018208DF8030003208DF80200694602481B
:1012700001F04AF908BD0000000C01401AB14369B1
:101280000B43436102E043698B434361704730B5D0
:10129000024600200023146824F00204146014683D
:1012A00044F00104146000E05B1C546804F0010485
:1012B0001CB94FF6FF74A342F6D1546804F0010440
:1012C0000CB900206CE08C79012C04D1146844F036
:1012D0008004146003E0146824F080041460CC7966
:1012E000012C04D1146844F04004146003E0146835
:1012F00024F0400414600C7A012C04D1146844F0EA
:101300002004146003E0146824F0200414604C7A74
:10131000012C04D1146844F01004146003E0146834
:1013200024F0100414608C7A012C04D1146844F069
:101330000804146003E0146824F008041460CC7AF4
:10134000012C04D1146844F00404146003E0146810
:1013500024F0040414608C78A407CD7844EA056472
:101360000D7944EA05444D7944EA05540D886D1E13
:101370002C43D461146824F001041460002300E0BD
:101380005B1C546804F001041CB14FF6FF74A342C7
:10139000F6D1546804F001040CB1002000E00120F3
:1013A00030BD00000EB51448FFF750FE684600F04F
:1013B000F7F800208DF8060001208DF807008DF861
:1013C000080000208DF809008DF80A008DF80B0048
:1013D0008DF8020001208DF8030005208DF804002F
:1013E00002208DF805000420ADF80000694602488F
:1013F000FFF74DFF0EBD00000064004008B54FF43C
:10140000A06001F081FD14208DF8000002208DF80D
:10141000010001208DF802008DF80300684601F0FC
:101420003BFD15208DF8000002208DF80100012001
:101430008DF802008DF80300684601F02DFD08BD0F
:1014400010B500F5D87303EB01131B6803F0040318
:101450001372137A53B900F5D87303EB01131B68A9
:1014600040F2FF7404EA5353136009E000F5D873A7
:1014700003EB01131B686FF0604404EAD30353606D
:1014800000F5D87303EB01131B6803F002035372DA
:1014900000F5D87303EB01135B6803F00F0393723D
:1014A00000F5D87303EB01135B681B0AD37400F5D6
:1014B000D87303EB01139B68D37200F5D87303EB69
:1014C00001139B681C0A147300F5D87303EB011316
:1014D0009B681C0C547300F5D87303EB01139B68D5
:1014E0001B0E937300F5D87303EB0113DB68D37302
:1014F00000F5D87303EB0113DB681C0A147400F5C4
:10150000D87303EB0113DB681C0C547400F5D8731B
:1015100003EB0113DB681B0E937421B9C36843F01E
:101520002003C36003E0036943F02003036110BD9F
:1015300041F21430134948600420087200204872B8
:10154000082088721048007AC8720F4881790D48C7
:1015500001730E4801780B4841730D480178094822
:1015600081730C4801780748C1730B48017805481E
:1015700001740A48017803484174084841780148D9
:1015800081747047940000208800002039000020FA
:101590003800002055000020560000202C000020BC
:1015A00000218171C171017241728172C1728170B9
:1015B000C170032101710221417101210180704735
:1015C00010B502460020936803F08063B3F1806F8A
:1015D00000D110E0936803F00063B3F1006F01D114
:1015E000012008E0936803F08053B3F1805F01D1DC
:1015F000022000E00420042874D002F5C07303EB3D
:1016000000131B6803F0010402F5C07303EB001321
:101610001C600B7A7BB94B7A0C8843EA445302F581
:10162000C07404EB00142468234302F5C07404EB77
:101630000014236010E00B7A4C6843EAC4034C7A30
:10164000234302F5C07404EB00142468234302F51D
:10165000C07404EB001423608B7A03F00F038B72C9
:1016600002F5C07303EB00135B6823F00F0402F56F
:10167000C07303EB00135C6002F5C07303EB00134F
:101680005B688C7A234302F5C07404EB001463603A
:101690008B7B1C064B7B44EA03440B7B44EA03230D
:1016A000CC7A234302F5C07404EB0014A3608B7C56
:1016B0001C064B7C44EA03440B7C44EA0323CC7BAA
:1016C000234302F5C07404EB0014E36002F5C07319
:1016D00003EB00131B6843F0010402F5C07303EB36
:1016E00000131C6010BD000010B56648007830B1D2
:1016F000012839D002285CD0032834D17EE062482A
:10170000006830B101280AD0022810D003281ED169
:1017100015E000205D4908605D49086017E04FF45E
:1017200096705A4908600120594908600FE04FF44B
:1017300016705649086001205549086007E040F2DC
:10174000E7305249086001205149086000BF00BFDE
:101750004D480068401C4C49086008460068032852
:1017600001DD0020086088E04A48006810B10128C7
:1017700012D108E04FF40061474800F0A4FF0120B7
:101780004349086008E04FF40061434800F099FFC6
:1017900000203F49086000BF00BF3E480068401C71
:1017A0003C49086008460068012801DD0020086007
:1017B00063E03A48006810B1012812D108E04FF404
:1017C0008051354800F07FFF01203149086008E072
:1017D0004FF48051304800F074FF00202C4908601D
:1017E00000BF00BF2D480068401C2C490860084617
:1017F0000068012801DD002008603EE028480068FC
:1018000030B1012810D0022816D0032828D11FE0BB
:101810001021244800F057FF0821224800F053FF10
:1018200001201B4908601BE010211E4800F049FF01
:1018300000201749086013E010211A4800F043FF08
:101840000821184800F03DFF01201149086007E019
:101850001021144800F035FF00200D49086000BF3A
:1018600000BF0F480068401C0D490860084600682A
:10187000032801DD0020086000BF00BFFF200149F0
:10188000087010BD5400002040000020800000209F
:101890006C0000204400002000140140480000209B
:1018A0004C0000200020014008B50121402001F03B
:1018B00073FB4020ADF8000010208DF803000320DA
:1018C0008DF802006946044800F01EFE40210248DF
:1018D00000F0F9FE08BD00000018014008B54020E6
:1018E000ADF8000048208DF803006946014800F07B
:1018F0000BFE08BD0018014008B54020ADF80000FF
:1019000010208DF8030003208DF80200694602487C
:1019100000F0FAFD08BD00000018014008B50121E3
:10192000202001F039FB10208DF8030003208DF8F2
:1019300002004FF40060ADF800006946014800F075
:10194000E3FD08BD0014014021B1026842F001022C
:10195000026004E002684FF6FE731A4002607047AE
:1019600001684FF6FE721140016000210160416084
:101970008160C1604B49884208D14A4908394968A9
:1019800041F00F01474A083A51608AE04549143155
:10199000884208D143490839496841F0F001414A79
:1019A000083A51607DE03F492831884208D13D49DD
:1019B0000839496841F470613A4A083A516070E068
:1019C00038493C31884208D136490839496841F4E0
:1019D0007041344A083A516063E0324950318842DC
:1019E00008D130490839496841F470212D4A083A34
:1019F000516056E02B496431884208D129490839A1
:101A0000496841F47001274A083A516049E0254984
:101A10007831884208D123490839496841F070611A
:101A2000204A083A51603CE01F49884206D1011F14
:101A3000096841F00F01021F116032E01A491431A8
:101A4000884208D11849091F096841F0F001164A77
:101A5000121F116025E014492831884208D112492B
:101A6000091F096841F470610F4A121F116018E0E4
:101A70000D493C31884208D10B49091F096841F4DE
:101A80007041094A121F11600BE00749503188422A
:101A900007D10549091F096841F47021024A121F44
:101AA00011607047080002400804024010B500228F
:101AB000026847F6F0739A430C6A8B6823430C69FB
:101AC00023434C6923438C692343CC6923434C6AE9
:101AD00023438C6A23431A430260CB6843600B683C
:101AE00083604B68C36010BD08B50121202001F060
:101AF00053FA4FF40050ADF8000010208DF80300A9
:101B000003208DF802006946044800F0FDFC4FF404
:101B10000051024800F0D7FD08BD0000001401404C
:101B20002DE9F04700F0DEF800F0C4F800F064F8AA
:101B3000CC2000F0E3F8BE2000F0E0F800F0A8F8B8
:101B40001549087000F0A4F8144908700846007898
:101B5000000204B2104800780443002C0DDAE04380
:101B6000401CFEF7CCFC054600220D4BFEF7E1FBC6
:101B70000746FEF715FD81460BE02046FEF7BFFC49
:101B800007460022064BFEF7D4FB0546FEF708FD8C
:101B900081464846BDE8F087390000203800002023
:101BA0000000B03F10B5FFF79FFF00F083F800F092
:101BB00023F810BD08B54FF40050ADF800004820E0
:101BC0008DF803006946024800F09EFC08BD000045
:101BD0000014014008B54FF40050ADF8000010208B
:101BE0008DF8030003208DF802006946014800F0DB
:101BF0008BFC08BD0014014010B50024FFF7DAFF8C
:101C000004E0601CC4B2012000F060F94FF4005100
:101C10000F4800F04DFD08B1642CF2DB642C01DBB1
:101C2000012010BD002404E0601CC4B2012000F0BB
:101C30004DF94FF40051064800F03AFD08B9F02C78
:101C4000F2DBF02C01DB0120EBE70020E9E70000EC
:101C50000014014010B5FFF7BDFF4FF400510B48D1
:101C600000F02FFD0A2000F031F9FFF7A3FF4FF439
:101C70000051064800F01CFD012801D1012400E0BC
:101C800000242D2000F022F9204610BD0014014050
:101C900070B50026002408E0FFF7DCFF054605FAD2
:101CA00004F03043C6B2601CC4B2082CF4DB3046EA
:101CB00070BD000010B5FFF78DFF4FF400510848CC
:101CC00000F0FFFC40F2EE2000F000F94FF400516C
:101CD000034800F0F8FC0F2000F0F8F810BD0000F9
:101CE0000014014010B5FFF7E5FFFFF785FFCC209A
:101CF00000F004F8442000F001F810BD70B504466F
:101D0000FFF768FF002526E004F00106641086B1A5
:101D10004FF40051114800F0D4FC082000F0D6F830
:101D20004FF400510D4800F0CEFC3A2000F0CEF800
:101D30000FE04FF40051094800F0C3FC462000F0CA
:101D4000C5F84FF40051054800F0BDFC022000F03A
:101D5000BDF8681CC5B2082DD6DB70BD001401406B
:101D60002DE9FC5F43490888FEF7C4FB4FF08B4127
:101D70000090FEF7F9F90190FEF7FFFB80464FF067
:101D800066323D4BFEF7D5FA82463C4A3C4BFEF7A5
:101D900029FA064600223B4BFEF7CBFA0446FEF733
:101DA000D3FB3949087033494888FEF7A3FB4FF04D
:101DB0008B410090FEF7D8F90190FEF7DEFB064656
:101DC0004FF066322C4BFEF7B4FA82462F4A304B66
:101DD000FEF7AFFA80462F4A2F4BFEF703FA044670
:101DE000FEF7B2FB2D49087008460078642801DD33
:101DF000642008702A48C0782949897840EA01207F
:101E00000A2190FBF1F026490881084640780978BC
:101E100040EA01200A2190FBF1F02149C88001200D
:101E200001F02AFA102001F027FA1E4800F04EF8BF
:101E300000F0CCFF1C4800781C4908801A48407804
:101E4000097800EB01201949088008460088FEF750
:101E500051FB8046FEF791FB06464FF03332144BA0
:101E6000FEF7D9FA0446FEF79BFB12490860BDE86D
:101E7000FC9F00002800002066660A409A99999904
:101E80009999A93F00C06840550000208FC2F528ED
:101E90005CD763C01F85EB51B8AA70405600002084
:101EA0008800002020BF02002C0000203400002009
:101EB0003333F33F58000020704701B502E000982B
:101EC000401E009000980028F9D108BD01B50849CE
:101ED000009808604FF0E020006940F001004FF0EA
:101EE000E021086100BF024800680028FBD108BD5E
:101EF0003C00002010B5012000F0E4F928B10020DA
:101F000002490860012000F051F910BD7400002062
:101F100010B54FF4804000F0D5F9002841D0384882
:101F2000006830B1012810D0022816D0032828D12B
:101F30001FE01021334800F0C6FB0821314800F0B3
:101F4000C2FB0120304908601BE010212D4800F041
:101F5000B8FB00202C49086013E01021294800F04C
:101F6000B2FB0821274800F0ACFB0120264908609D
:101F700007E01021234800F0A4FB0020224908605C
:101F800000BF00BF1E480068401C1D49086008468D
:101F90000068032801DD002008604FF4804000F055
:101FA00005F94FF4005000F08DF938B31748006878
:101FB00010B1012812D108E04FF48051144800F00C
:101FC00082FB01201049086008E04FF4805110485E
:101FD00000F077FB00200C49086000BF00BF0B48F1
:101FE0000068401C0949086008460068012801DDB6
:101FF000002008604FF4005000F0D8F810BD000039
:1020000060000020002001406C00002064000020DF
:102010000014014010B500F087FE1021194800F0AF
:1020200052FB042000F04EF900282AD00120164966
:1020300008604FF4784315A2F021962000F0ECFBE5
:1020400015E020210F4800F03CFB2021114800F052
:102050003AFB114801F00AFD20210A4800F033FB49
:1020600020210C4800F02DFB0B4801F0FFFC064836
:1020700000680028E5D109A001F02EFC042000F042
:1020800095F810BD00100140740000205741524ED9
:10209000494E47000018014040420F000D0A2057EA
:1020A00041524E494E47200D0A00000010B5102045
:1020B00000F008F900283BD01E48006830B1012824
:1020C0000AD0022810D003281ED115E000201A499A
:1020D00008601A49086017E04FF4967016490860C6
:1020E0000120164908600FE04FF41670124908608D
:1020F00001201249086007E040F2E7300E4908600D
:1021000001200E49086000BF00BF0A480068401C5B
:102110000849086008460068032801DD00200860BF
:102120000548016806A001F0D7FB102000F03EF83A
:1021300010BD00005C000020800000206C0000202A
:1021400025640A0010B5202000F0BCF830B3144814
:10215000006810B1012812D108E04FF40061114865
:1021600000F0B1FA01201049086008E04FF4006166
:102170000C4800F0A6FA00200B49086000BF00BF21
:1021800007480068401C06490860084600680128A6
:1021900001DD00200860202000F008F810BD0000DC
:1021A00068000020001401406C0000200149086014
:1021B00070470000140401400EB50121812000F099
:1021C000EBFE01214FF4827000F0E6FE00F021FEEC
:1021D00048208DF80B001020ADF8080002A9374800
:1021E00000F092F90421002000F06EF91020009018
:1021F00000208DF804000C208DF8050001208DF8DA
:102200000600684600F072F848208DF80B00202088
:10221000ADF8080002A9294800F076F90521002050
:1022200000F052F92020009000208DF804000C20CE
:102230008DF8050001208DF80600684600F056F87C
:1022400048208DF80B004FF40050ADF8080002A9AB
:102250001B4800F059F90D21052000F035F94FF425
:102260000050009000208DF804000C208DF805002F
:1022700001208DF80600684600F038F848208DF8F7
:102280000B004FF48040ADF8080002A90B4800F0A5
:102290003BF90E21002000F017F94FF48040009028
:1022A00000208DF804000C208DF8050001208DF829
:1022B0000600684600F01AF80EBD00000008014054
:1022C000001C0140014600200022074B1B6803EA66
:1022D0000102054B14331B680B4013B10AB10120F6
:1022E00000E0002070470000000401400021234965
:1022F0008279002A3AD00A46126803689A430B464C
:102300001A600A1D126803689A430B1D1A6002794D
:1023100011440A6803681A430A60184A08321268AE
:1023200003689A43154B08331A601A1D1268036834
:102330009A43124B0C331A604279102A0ED11A1F9D
:10234000126803681A430D4B08331A601A1D12688D
:1023500003681A43094B0C331A600DE007494279B0
:1023600011440A6803681A430A6005E002791144BF
:102370000A6803689A430A6070470000000401403D
:1023800051B18200A2F1C042126842F00103820002
:10239000A2F1C042136009E08200A2F1C0421268BB
:1023A000034B1A408300A3F1C0431A60704700003A
:1023B000FEFF0F00D0E901121143C2681143026908
:1023C00011434269114382691143C2691143026A90
:1023D0001143426A1143826A1143C26A1143026B7C
:1023E000114302689200A2F1C0421160816808297D
:1023F0000BD101688900A1F1C041096841F0400298
:1024000001688900A1F1C0410A60416B0968426B13
:10241000526841EA0211426B926841EA0221426B22
:10242000928941EA0241426B128A41EA0251426BAF
:10243000127D41EA0261426B926911430268521CAB
:102440009200A2F1C0421160C16AB1F5804F1BD168
:10245000816B0968826B526841EA0211826B926853
:1024600041EA0221826B128A41EA0251826B127D9B
:1024700041EA0261826B9269114302689200A2F103
:10248000C042C2F8041107E06FF070420168890091
:10249000A1F1C041C1F804217047000008B5012135
:1024A000802000F079FD0320ADF8000010208DF8A9
:1024B000030003208DF802006946024800F024F86A
:1024C00008BD0000001C014030B500228B071C0F26
:1024D0000F2303FA04F20B4B8C1053F82430934370
:1024E000084C8D1044F8253023468C1053F82430C6
:1024F0008C07240F00FA04F42343024C8D1044F897
:10250000253030BD080001402DE9F041024600258C
:102510000026002000230024002791F803C00CF0BF
:102520000F0591F803C00CF0100CBCF1000F03D0A4
:1025300091F802C04CEA050591F800C0BCF1000F0B
:1025400031D0146800202BE04FF0010C0CFA00F39E
:10255000B1F800C00CEA03069E4220D183004FF080
:102560000F0C0CFA03F7BC4305FA03FC4CEA040415
:1025700091F803C0BCF1280F06D14FF0010C0CFA02
:1025800000FCC2F814C00AE091F803C0BCF1480F87
:1025900005D14FF0010C0CFA00FCC2F810C0401C31
:1025A0000828D1D31460B1F800C0BCF1FF0F34DDAE
:1025B000546800202EE000F1080C4FF0010808FAE2
:1025C0000CF3B1F800C00CEA03069E4221D183004F
:1025D0004FF00F0C0CFA03F7BC4305FA03FC4CEA6E
:1025E000040491F803C0BCF1280F05D100F1080CD8
:1025F00008FA0CF8C2F8148091F803C0BCF1480F37
:1026000007D100F1080C4FF0010808FA0CF8C2F8E5
:102610001080401C0828CED35460BDE8F081000033
:10262000F0B50A46002300240021002500F00046F2
:10263000B6F1004F02D11D4EF16901E01B4E7168E9
:10264000C0F3034583B200F44016B6F5401F08D12D
:1026500021F07061154E766826F07066134F7E602B
:1026600012E000F48016B6F5801F06D1032606FAA4
:1026700005F4A14341F0706106E0460D360103FA0E
:1026800006F6B14341F0706122B1460D360103FAFE
:1026900006F6314300F00046B6F1004F02D1034E7A
:1026A000F16101E0014E7160F0BD000000000140E9
:1026B0000246002093680B400BB1012000E000208F
:1026C0007047416170470161704700BFFEE7F0B598
:1026D000059D00242A264FF0D8473E8006124FF071
:1026E000DA473E80C6B23E808618761EC6F30F26B5
:1026F0003E808618761EF6B23E802B264FF0D847D5
:102700003E800E124FF0DA473E80CEB23E80CE18A9
:10271000761EC6F30F263E80CE18761EF6B23E8099
:102720002C264FF0D8473E8000BF03E04FF0DA463A
:102730003580641C02FB03F6A642F7D8F0BD2DE9F4
:10274000F047064688461446994600270025254648
:102750003DB94B4630224146304600F025F8BDE8F1
:10276000F08703E00A20B5FBF0F57F1C002DF9D1BE
:1027700015E00A20B4FBF0F100FB114000F1300A33
:1027800039467F1E062202FB0161891F88B24B4633
:102790005246414600F008F80A20B4FBF0F4002C41
:1027A000E7D100BFDBE700002DE9F04F81468A4604
:1027B00015461E46A5F120001FFA80FB0C230622B9
:1027C0005146484600F068F92C204FF0D841088067
:1027D00000241BE00BEB4B000E4901EB800010F8CE
:1027E000048000270EE008F0010018B14FF0DA4035
:1027F000068003E000204FF0DA4108804FEA6808C5
:10280000781C87B2062FEEDB601C84B20C2CE1DB57
:10281000BDE8F08FFC3C0008F0B505460E461446B6
:102820001F4613E0EA2D03DD002506F10C0086B2F9
:10283000B6F59A7F01DD0025002622783B46314619
:102840002846FFF7B1FFA81D85B2641C2078002838
:10285000E8D1F0BD00B597B00220019000200290B1
:102860000520039000200490059006904FF08050C2
:102870000790062008900020099008200A90102058
:102880000B9000200C900E900F9010904FF4805001
:102890001190002012901390149001A8159016909A
:1028A00008A8FFF787FD01210620FFF769FD17B093
:1028B00000BD000008B50121080200F03DFB012128
:1028C0004FF4F47000F068FB10208DF80300032033
:1028D0008DF802000220ADF8000069462148FFF79C
:1028E00013FE4FF40060ADF8000069461E48FFF784
:1028F0000BFE03208DF8020018208DF803004CF227
:102900000370ADF8000069461848FFF7FDFD4FF66B
:102910008070ADF8000069461548FFF7F5FD1020FE
:10292000ADF8000069461148FFF7EEFD2020ADF834
:10293000000069460D48FFF7E7FD4FF48050ADF801
:10294000000069460848FFF7DFFD0420ADF80000ED
:1029500069460748FFF7D8FD02210248FFF7B1FE9C
:1029600008BD0000000C014000200140001401409F
:102970000018014010B5FFF79DFFFFF76BFF00F057
:10298000BDF900F0B1F810BD10B54FF6E07323A209
:1029900005212320FFF740FF4FF4FC6327A22821E5
:1029A0000A20FFF739FF1F2326A228213C20FFF72A
:1029B00033FF1F2327A23C210846FFF72DFF4FF4CA
:1029C000FC6327A264210A20FFF726FF1F231DA214
:1029D00064213C20FFF720FF1F231EA278213C200A
:1029E000FFF71AFF4FF4FC631FA2A0210A20FFF794
:1029F00013FF1F231EA2A0213C20FFF70DFF4FF461
:102A0000FC631FA2C8210A20FFF706FF1F231EA296
:102A1000C8213C20FFF700FF10BD00004275732065
:102A2000477265656E686F75736520436F6E74726B
:102A30006F6C2053797374656D0000004149523A00
:102A40002000000054656D70657261747572653A9E
:102A50000000000048756D69646974793A000000EF
:102A6000534F494C3A000000434F323A00000000F7
:102A7000436F6E63656E74726174696F6E3A0000C5
:102A80004C494748543A0000496C6C756D696E6159
:102A900074696F6E3A00000030B52A244FF0D845B3
:102AA0002C8004124FF0DA452C80C4B22C8084189C
:102AB000641EC4F30F242C808418641EE4B22C809E
:102AC0002B244FF0D8452C800C124FF0DA452C8087
:102AD000CCB22C80CC18641EC4F30F242C80CC18EC
:102AE000641EE4B22C8030BD00B5CF204FF0D84139
:102AF000088000204FF0DA410880812008803020D3
:102B00000880ED204FF0D841088064204FF0DA4172
:102B10000880032008801220088081200880E82097
:102B20004FF0D841088085204FF0DA41088010200E
:102B3000088078200880CB204FF0D84108803920C9
:102B40004FF0DA4108802C200880002008803420D3
:102B5000088002200880F7204FF0D841088020200C
:102B60004FF0DA410880EA204FF0D8410880002079
:102B70004FF0DA4108800880B1204FF0D84108803A
:102B800000204FF0DA4108801B200880B620410663
:102B900008800A204FF0DA410880A2200880C02077
:102BA0004FF0D841088035204FF0DA410880C1202D
:102BB0004FF0D841088011204FF0DA410880C5203D
:102BC0004FF0D841088045204FF0DA410880088056
:102BD000C7204FF0D8410880A2204FF0DA4108808A
:102BE000F2204FF0D841088000204FF0DA410880F1
:102BF00026204FF0D841088001204FF0DA410880AC
:102C0000E0204FF0D84108800F204FF0DA410880D3
:102C100026200880242008800B2008800E200880B1
:102C20000920088054200880A820088046200880B9
:102C30000C20088017200880092008800F200880B9
:102C40000720088000200880E1204FF0D84108804C
:102C500000204FF0DA410880192008801B200880EE
:102C60000420088010200880072008802A2008807F
:102C7000472008803920088003200880062008802B
:102C8000088030200880382008800F2008803620F7
:102C900041060880C8204FF0DA4108802A204FF012
:102CA000D841088000204FF0DA4108800880088071
:102CB000EF2008802B204FF0D841088000204FF0F3
:102CC000DA4108800880012008803F2008803A20EF
:102CD0004FF0D841088055204FF0DA41088011208C
:102CE0004FF0D84108800448FFF7E7F829204FF05B
:102CF000D841088000BD0000FCBF020010B54FF4B1
:102D000000610748FFF7DDFC0648FFF7D6F84FF4EF
:102D100000610348FFF7D7FC0248FFF7CEF810BD6B
:102D200000200140FCBF020008B50121DC2000F0BA
:102D300033F910208DF8030003208DF802004020A5
:102D4000ADF8000069461B48FFF7DEFB0120ADF837
:102D5000000069461848FFF7D7FB3020ADF80000A7
:102D600069461648FFF7D0FB1020ADF80000694611
:102D70001348FFF7C9FB4FF48050ADF800006946D7
:102D80001048FFF7C1FB40210A48FFF79AFC0121D8
:102D90000948FFF796FC30210848FFF792FC102104
:102DA0000748FFF78EFC4FF480510648FFF789FC77
:102DB00008BD000000080140000C01400010014067
:102DC00000180140001C014000BFFEE710B5FEF7EF
:102DD0007FF84720FEF752F800240EE0FDF7FCFFD5
:102DE0000A490855032C03D10120FEF723F802E01D
:102DF0000020FEF71FF8601CC4B2032CEEDBFEF7C8
:102E000085F841F28830FFF761F810BD2C000020F2
:102E1000704708B54FF4C06000F076F80A208DF8CE
:102E2000000001208DF8010000208DF80200012033
:102E30008DF80300684600F02FF817208DF8000089
:102E400001208DF8010000208DF8020001208DF88E
:102E50000300684600F020F828208DF800000120CB
:102E60008DF8010000208DF8020001208DF803008C
:102E7000684600F011F828208DF8000001208DF838
:102E8000010000208DF8020001208DF80300684643
:102E900000F002F808BD000070B5002100230F22E9
:102EA000C47804B3154C246804F4E064C4F5E06409
:102EB000210AC1F10403CA40447804FA03F184787A
:102EC0001440214309010E4C0678A155047804F002
:102ED0001F050124AC4005786D11AD0005F1E0251A
:102EE000C5F8004109E0047804F01F050124AC4056
:102EF000044D0678761145F8264070BD0CED00E0D3
:102F000000E400E080E100E002490143024A116070
:102F1000704700000000FA050CED00E0704700006B
:102F200001460020034A506820F4404008435060A6
:102F3000704700000010024029B1064A526902435E
:102F4000044B5A6104E0034A52698243014B5A61BF
:102F5000704700000010024029B1064AD2690243BE
:102F6000044BDA6104E0034AD2698243014BDA611F
:102F7000704700000010024029B1064A126902435E
:102F8000044B1A6104E0034A12698243014B1A613F
:102F9000704700000010024029B1064A92690243BE
:102FA000044B9A6104E0034A92698243014B9A619F
:102FB000704700000010024030B5002100220024BC
:102FC00000232D4D6D6805F00C0121B1042905D0B9
:102FD000082923D105E0294D056022E0274D056031
:102FE0001FE0254D6D6805F47012234D6D6805F4E2
:102FF0008034022505EB92421CB9214D55430560F2
:103000000BE01D4D6D6805F400351DB11C4D554399
:10301000056002E0194D5543056002E0174D05605B
:1030200000BF00BF144D6D6805F0F0010909154D92
:103030006B5C0568DD4045600F4D6D6805F4E0612F
:10304000090A104D6B5C4568DD4085600A4D6D686E
:1030500005F46051C90A0B4D6B5C4568DD40C560E5
:10306000054D6D6805F44041890B074D6B5CC568E3
:10307000B5FBF3F5056130BD0010024000127A0087
:1030800000093D00140000202400002070B5002538
:10309000002424E000BF40211348FFF709FB00286B
:1030A000F9D02820FEF712FF40210F48FFF700FB60
:1030B00001280DD100BF40210B48FFF7F9FA012884
:1030C000F9D0C4F1070101208840C0B2054304E0F3
:1030D000C4F10701012088408543601CC4B2082C5C
:1030E000D8DB284670BD00000018014010B504462A
:1030F000FEF702FC40212448FFF7E3FA4FF47A7010
:10310000FEF7E4FE40212048FFF7DDFA1E20FEF71F
:10311000DDFEFEF7E3FB40211B48FFF7C9FA70BB59
:1031200000BF40211848FFF7C3FA0028F9D000BFBC
:1031300040211548FFF7BCFA0128F9D0FFF7A6FF98
:103140002070FFF7A3FF6070FFF7A0FFA070FFF7EC
:103150009DFFE070FFF79AFF2071FEF7CDFB402145
:103160000948FFF7B0FA207861780844A17808444C
:10317000E17808442179884202D1012010BD01E0A4
:103180000020FBE70020F9E700180140704710B568
:1031900000F002F810BD00000CB500200190009076
:1031A0003348006840F480303149086000BF30483F
:1031B000006800F4003000900198401C01900098D5
:1031C00018B90198B0F5A06FF1D12948006800F452
:1031D000003010B10120009001E000200090009824
:1031E000012843D12348006840F0100021490860BD
:1031F0000846006820F0030008600846006840F0B8
:10320000020008601A48406819494860084640684A
:1032100048600846406840F480604860084640685E
:1032200020F47C1048600846406840F4E81048608C
:103230000846006840F08070086000BF0C480068D5
:1032400000F000700028F9D00948406820F0030021
:10325000074948600846406840F00200486000BFE7
:103260000348406800F00C000828F9D10CBD0000AC
:10327000001002400020024010B50446FDF728FE71
:103280004620FDF7FBFD2046FDF7F8FDFDF73EFE6D
:1032900010BD10B500F0F6F910BD000030B51A48A9
:1032A00000681A4AB0FBF2F1B1F1807F01D301202E
:1032B0001DE021F07F40401E4FF0E022506150178A
:1032C0000F22002807DA13071D0E114B00F00F0420
:1032D000241F1D5503E013071C0E0E4B1C5400BF8A
:1032E00000204FF0E022906107201061002008B11B
:1032F00000BFFEE74FF0E020006920F001004FF032
:10330000E021086130BD00000000002040420F00B5
:1033100018ED00E000E400E010B51348006840F04C
:1033200001001149086008464068104908400E49EC
:103330004860084600680E4908400B490860084686
:10334000006820F4802008600846406820F4FE00F1
:1033500048604FF41F008860FFF719FF4FF00060CE
:103360000449086010BD0000001002400000FFF892
:10337000FFFFF6FE08ED00E008B501210220FFF78F
:10338000EBFD01210420FFF707FEC020ADF800008F
:1033900018208DF8030003208DF8020069460248CA
:1033A000FFF7B2F808BD00000008014010B588B072
:1033B0004FF4FA7440F2E730ADF818003220ADF85F
:1033C00014000020ADF81A00ADF8160005A9184841
:1033D00000F006F96020ADF804000120ADF8060009
:1033E0001448008880B2ADF80A000020ADF80C0047
:1033F00001A90F4800F03EF808210D4800F086F8BA
:103400000120ADF80600ADF80A4001A9084800F017
:1034100087F80821064800F0D5F80121044800F09B
:1034200011F80121024800F019F808B010BD0000A1
:10343000000400408000002010B5FFF79DFFFFF75B
:10344000B5FF10BD21B1028842F08002028004E085
:1034500002884FF67F731A400280704721B10288BC
:1034600042F00102028004E002884FF6FE731A4027
:103470000280704770B5002400220023058C4FF6AF
:10348000FE7635400584028C8388048B4FF68F7559
:103490002C40B51E2C400D882C43751E2A400D89EA
:1034A0002A434D882A43144DA8420BD0134DA842FD
:1034B00008D0134DA84205D0124DA84202D0124D9B
:1034C000A84213D14FF6F7752A404D892A434FF68B
:1034D000FB752A408D882A434FF6FF652B404FF637
:1034E000FF552B408D892B43CD892B43838004834B
:1034F000CD888586028470BD002C014000340140D7
:103500000040014000440140004801400A460021BB
:10351000018B4FF6F7731940114301837047000088
:1035200070B5002400220023058C4FF6EF7635405D
:103530000584028C8388048B48F6FF752C404FF677
:10354000FF452C400D884FF6FF7606EA05252C43F3
:103550004FF6DF752A400D8906EA05152A434D8886
:1035600006EA05152A43154DA84202D0144DA8427B
:103570001DD14FF67F752A404D894FF6FF7606EA3A
:1035800005152A434FF6BF752A408D8806EA0515B2
:103590002A434FF6FF352B404FF2FF752B408D89A4
:1035A00006EA85052B43CD8906EA85052B438380F2
:1035B0000483CD880587028470BD0000002C014083
:1035C000003401400A460021018B4FF2FF7319407D
:1035D0004FF6FF7303EA022319430183704700008B
:1035E000002202881D4B98420ED01D4B98420BD0F2
:1035F000B0F1804F08D01B4B984205D01A4B98422F
:1036000002D01A4B984204D14FF68F731A404B8860
:103610001A43174B984207D0164B984204D04FF6E6
:10362000FF431A40CB881A4302808B8883850B881E
:1036300003850A4B98420BD0094B984208D00E4B99
:10364000984205D00D4B984202D00D4B984201D1C3
:103650000B7A03860123838270470000002C01400F
:10366000003401400004004000080040000C00400D
:1036700000100040001400400040014000440140A0
:10368000004801400448006820B103480068401E1B
:1036900001490860704700003C00002000B585B07B
:1036A000012144F20400FFF777FC4FF40070ADF8FD
:1036B000100018208DF8130003208DF8120004A9C3
:1036C0001648FEF721FF4FF48060ADF8100004208B
:1036D0008DF8130004A91148FEF716FF4FF4E130EE
:1036E00000900020ADF80400ADF80600ADF8080029
:1036F000ADF80C000C20ADF80A006946084800F04F
:103700004FF8012240F22551054800F024F801212C
:10371000034800F007F805B000BD000000080140B4
:103720000038014021B1828942F40052828104E0D4
:1037300082894DF6FF731A4082817047024600204D
:10374000B1F5007F00D100BF13880B400BB1012001
:1037500000E000207047F0B5034600240026002555
:10376000002040F66A17B94200D100BF1846C1F3E5
:10377000421401F01F06012707FA06F5012C01D1BA
:103780000C3004E0022C01D1103000E014301AB1EA
:1037900007682F43076002E00768AF430760F0BD8A
:1037A0002DE9F04786B005460E460024A24600BF2C
:1037B000A1460027B08900B100BF2F462C8A4CF6E5
:1037C000FF700440F08804432C82AC894EF6F3105D
:1037D0000440B08831890843718908430443AC81AF
:1037E000AC8A4FF6FF400440B0890443AC8201A884
:1037F000FFF7E2FB1F48874202D1DDF810A001E08D
:10380000DDF80CA0A88900F4004040B10AEBCA0022
:1038100000EB0A1031684900B0FBF1F807E00AEB51
:10382000CA0000EB0A1031688900B0FBF1F864208F
:10383000B8FBF0F004012009642101FB1089A8897C
:1038400000F4004040B1322000EBC900B0FBF1F0C1
:1038500000F00700044308E0322000EB0910642167
:10386000B0FBF1F000F00F0004432C8106B0BDE87E
:10387000F087000000380140C1F3080282807047E1
:1038800010B50E4A00210E48FDF7DAFD0B484068DE
:10389000B0F5C05F0AD10948007A042806D107486C
:1038A000807A18B900200749087002E0FF20054916
:1038B000087005A000F010F810BD0000A80000205E
:1038C000006400407C0000200D0A20363636200DB2
:1038D0000A00000000BFFEE70FB4054B10B503A9B6
:1038E000044A029800F018F810BC5DF814FB0000C0
:1038F000D93A00088400002002E008C8121F08C15D
:10390000002AFAD170477047002001E001C1121F60
:10391000002AFBD1704700002DE9FF4F89B09B467C
:103920000446002506E025280BD05A460B999047FF
:10393000641C6D1C20780028F5D10DB02846BDE828
:10394000F08F0027B8460122474900E0074314F8EA
:10395000013F203B02FA03F00842F7D120782E28DD
:1039600019D114F8010F47F004072A280ED06FF080
:103970002F022078A0F1300109290CD808EB88012A
:1039800002EB410100EB0108641CF2E70A98641C99
:1039900050F8048B0A9020780028CED0642808D0F4
:1039A000692806D075281ED05A460B9990476D1C81
:1039B00058E00A994FF00A0901C90A91002802DA71
:1039C00040422D2102E0390504D52B218DF820102D
:1039D000012103E0F90704D02021F7E78A4608AE69
:1039E0000DE00021FAE70A994FF00A0901C90A918E
:1039F000F7E74946FCF704FE303106F8011D0028C0
:103A0000F7D1ADEB060000F12009780701D44FF0A3
:103A10000108C84502DDA8EB090000E0002080464F
:103A2000002706E008A85A46C05D0B9990476D1C18
:103A30007F1C5745F6DB04E030205A460B9990472F
:103A40006D1CB8F10001A8F10108F5DC05E016F8DD
:103A5000010B5A460B9990476D1CB9F10001A9F171
:103A60000109F4DC641C65E70928010001B502E0E6
:103A70000098401E009000980028F9D108BD000071
:103A800008B501210802FFF787FA10208DF803001E
:103A900003208DF802000820ADF8000069460248B6
:103AA000FEF732FD08BD00000020014008B50121ED
:103AB0000802FFF771FA10208DF8030003208DF83B
:103AC00002001020ADF8000069460248FEF71CFD18
:103AD00008BD00000020014070B504460D46E1B26B
:103AE0000548FFF7C9FE00BF80210348FFF726FE07
:103AF0000028F9D0204670BD0038014008B50121EA
:103B00002020FFF749FA10208DF8030003208DF8DC
:103B100002004FF48050ADF8000069460448FEF7FB
:103B2000F3FC41F201010248FEF7CDFD08BD0000A3
:103B30000014014008B5FFF7B1FBFEF71BFF0120A1
:103B400080F3108800BF002080F3108800BFFEF7CC
:103B500033FBFFF7A3FDFFF793FFFFF7A7FFFDF789
:103B6000DDFEFFF7CBFFFFF799FB00204FF4A073BA
:103B7000F02201460090FEF7AAFDFEF705FFFDF7D3
:103B800093FEFEF70FF8FCF74BFEFFF7CDF8FDF7BD
:103B9000D5F8FDF7D1F9FFF781FDFDF74DFA87E084
:103BA000FFF74AFCFDF7A0FD4248FFF79FFAFEF73A
:103BB000D7F800204FF4A073F0222821009096201F
:103BC000FEF785FD3B4802894FF478432821962073
:103BD000FEF7B5FD1F2338A22821AA20FEF71CFE00
:103BE0003448C2884FF478433C219620FEF7A7FD65
:103BF0001F2332A23C21AA20FEF70EFEFDF790FF04
:103C00000546FCF78DFC04464FF4784322466421B8
:103C10009620FEF794FD1F2327A26421AA20FEF719
:103C2000FBFD4FF478432648027878219620FEF772
:103C300086FD1F2321A27821AA20FEF7EDFD4FF477
:103C4000784320480278A0219620FEF778FD1F23B4
:103C50001DA2A021AF20FEF7DFFD1C480068FCF785
:103C60005FFC04464FF478432246C8219620FEF7B5
:103C700066FD1F2316A2C821B420FEF7CDFD15A0B6
:103C8000FFF72AFE00BF16480078FF28FBD0FDF79B
:103C90004FFC14491448FDF793FC14A0FFF71CFED9
:103CA000FF200F490870FCF7FBFE1348FEF70EF9E2
:103CB00076E7000088000020430000005248000022
:103CC000560000205500002050504D0058000020A4
:103CD0004C5800000D0A20313233200D0A0000003C
:103CE0007C00002094000020006400400D0A203970
:103CF0003939200D0A00000040420F00000000008A
:103D0000000000000000000000000404040404049B
:103D10000004000000140A0A000000000000000077
:103D2000000014143F140A3F0A0A000000041E1584
:103D300005060C14150F0400000012150D0A142CB2
:103D40002A1200000000040A0A1E15150936000098
:103D50000002020100000000000000000020100826
:103D600008080808081020000002040808080808CD
:103D70000804020000000004150E0E1504000000E7
:103D800000000404041F04040400000000000000FC
:103D9000000000000002020100000000001F0000FF
:103DA0000000000000000000000000000002000011
:103DB00000100808080404020202010000000E11AD
:103DC00011111111110E0000000004060404040476
:103DD000040E000000000E1111080402011F000073
:103DE00000000E11100C1010110E00000000080C45
:103DF0000A0A091E0818000000001F01010F101018
:103E0000110E000000000E09010F1111110E00002B
:103E100000001F09080404040404000000000E113F
:103E2000110E1111110E000000000E1111111E10C3
:103E3000120E00000000000004000000000400005A
:103E4000000000000004000000040400002010082E
:103E50000402040810200000000000001F00001FE2
:103E600000000000000204081020100804020000F6
:103E700000000E11110804040004000000000E11DF
:103E80001915151D011E0000000004040C0A0A1E6D
:103E90001233000000000F12120E1212120F000057
:103EA00000001E1101010101110E000000000F129F
:103EB00012121212120F000000001F120A0E0A0244
:103EC000121F000000001F120A0E0A020207000063
:103ED00000001C1201013911120C00000000331205
:103EE000121E12121233000000001F040404040406
:103EF000041F000000003E08080808080809070021
:103F0000000037120A060A0A1237000000000702F2
:103F100002020202223F000000001B1B1B1B1515A2
:103F20001515000000003B1216161A1A1217000091
:103F300000000E1111111111110E000000000F12DE
:103F4000120E02020207000000000E1111111117DB
:103F5000190E180000000F12120E0A12123700007C
:103F600000001E1101060810110F000000001F15AF
:103F700004040404040E0000000033121212121292
:103F8000120C000000003312120A0A0C0404000094
:103F900000001515150E0A0A0A0A000000001B0A87
:103FA0000A04040A0A1B000000001B0A0A04040495
:103FB000040E000000001F0908040402121F000084
:103FC000001C04040404040404041C000002020293
:103FD0000404080808100000000E08080808080873
:103FE00008080E0000040A000000000000000000A5
:103FF00000000000000000000000003F000400007E
:10400000000000000000000000000000000C121C76
:10401000123C000000000302020E1212120E0000F9
:1040200000000000001C1202021C0000000018101A
:10403000101C1212123C000000000000000C121EA6
:10404000021C000000003804041E0404041E0000CA
:1040500000000000003C120C021E221C00000302A3
:10406000020E1212123700000000040000060404C1
:10407000040E000000000800000C080808080807EB
:1040800000000302023A0A0E123700000000070483
:1040900004040404041F000000000000000F1515B4
:1040A0001515000000000000000F1212123700006A
:1040B00000000000000C1212120C000000000000B2
:1040C000000F1212120E020700000000001C121254
:1040D000121C103800000000001B0602020700003E
:1040E00000000000001E020C101E00000000000472
:1040F000040E04040418000000000000001B12124B
:10410000123C0000000000000037120A0C040000FE
:10411000000000000015150E0A0A00000000000053
:10412000001B0A040A1B0000000000000037120AEE
:104130000C04040300000000001E0804041E00001C
:1041400000180808080408080808180008080808E3
:1041500008080808080808080006040404080404FD
:104160000404060002251800000000000000000002
:10417000904100080000002088000000F838000886
:1041800018420008880000203804000008390008A0
:1041900000A24A0400000000000000000102030425
:1041A00006070809000000000102030401020304DD
:1041B00006070809020406080000000000000000CD
:1041C00000000000000000000000000000000000EF
:1041D00000000000000000000000000000000000DF
:1041E00000000000FF0000000000000000000000D0
:1041F00000000000000000000000000000000000BF
:1042000000000000000000000000003FFF00000070
:084210000000000000000000A6
:0400000508000131BD
:00000001FF
